{
  "contractName": "Election",
  "abi": [
    {
      "constant": true,
      "inputs": [
        {
          "name": "",
          "type": "uint256"
        }
      ],
      "name": "candidates",
      "outputs": [
        {
          "name": "id",
          "type": "uint256"
        },
        {
          "name": "name",
          "type": "string"
        },
        {
          "name": "voteCount",
          "type": "uint256"
        }
      ],
      "payable": false,
      "stateMutability": "view",
      "type": "function"
    },
    {
      "constant": true,
      "inputs": [
        {
          "name": "",
          "type": "address"
        }
      ],
      "name": "voters",
      "outputs": [
        {
          "name": "",
          "type": "bool"
        }
      ],
      "payable": false,
      "stateMutability": "view",
      "type": "function"
    },
    {
      "constant": true,
      "inputs": [],
      "name": "candidateCount",
      "outputs": [
        {
          "name": "",
          "type": "uint256"
        }
      ],
      "payable": false,
      "stateMutability": "view",
      "type": "function"
    },
    {
      "inputs": [],
      "payable": false,
      "stateMutability": "nonpayable",
      "type": "constructor"
    },
    {
      "anonymous": false,
      "inputs": [
        {
          "indexed": true,
          "name": "_candidateId",
          "type": "uint256"
        }
      ],
      "name": "voteEvent",
      "type": "event"
    },
    {
      "constant": false,
      "inputs": [
        {
          "name": "_candidateId",
          "type": "uint256"
        }
      ],
      "name": "Vote",
      "outputs": [],
      "payable": false,
      "stateMutability": "nonpayable",
      "type": "function"
    }
  ],
  "bytecode": "0x6060604052341561000f57600080fd5b6100606040805190810160405280600b81526020017f43616e64696461746520310000000000000000000000000000000000000000008152506100b6640100000000026103b8176401000000009004565b6100b16040805190810160405280600b81526020017f43616e64696461746520320000000000000000000000000000000000000000008152506100b6640100000000026103b8176401000000009004565b6101d7565b600260008154809291906001019190505550606060405190810160405280600254815260200182815260200160008152506000806002548152602001908152602001600020600082015181600001556020820151816001019080519060200190610121929190610132565b506040820151816002015590505050565b828054600181600116156101000203166002900490600052602060002090601f016020900481019282601f1061017357805160ff19168380011785556101a1565b828001600101855582156101a1579182015b828111156101a0578251825591602001919060010190610185565b5b5090506101ae91906101b2565b5090565b6101d491905b808211156101d05760008160009055506001016101b8565b5090565b90565b610505806101e66000396000f300606060405260043610610062576000357c0100000000000000000000000000000000000000000000000000000000900463ffffffff1680633477ee2e14610067578063a3ec138d14610111578063a9a981a314610162578063dcd6a5cd1461018b575b600080fd5b341561007257600080fd5b61008860048080359060200190919050506101ae565b6040518084815260200180602001838152602001828103825284818151815260200191508051906020019080838360005b838110156100d45780820151818401526020810190506100b9565b50505050905090810190601f1680156101015780820380516001836020036101000a031916815260200191505b5094505050505060405180910390f35b341561011c57600080fd5b610148600480803573ffffffffffffffffffffffffffffffffffffffff16906020019091905050610270565b604051808215151515815260200191505060405180910390f35b341561016d57600080fd5b610175610290565b6040518082815260200191505060405180910390f35b341561019657600080fd5b6101ac6004808035906020019091905050610296565b005b6000602052806000526040600020600091509050806000015490806001018054600181600116156101000203166002900480601f0160208091040260200160405190810160405280929190818152602001828054600181600116156101000203166002900480156102605780601f1061023557610100808354040283529160200191610260565b820191906000526020600020905b81548152906001019060200180831161024357829003601f168201915b5050505050908060020154905083565b60016020528060005260406000206000915054906101000a900460ff1681565b60025481565b600160003373ffffffffffffffffffffffffffffffffffffffff1673ffffffffffffffffffffffffffffffffffffffff16815260200190815260200160002060009054906101000a900460ff161515156102ef57600080fd5b60008111801561030157506002548111155b151561030c57600080fd5b60018060003373ffffffffffffffffffffffffffffffffffffffff1673ffffffffffffffffffffffffffffffffffffffff16815260200190815260200160002060006101000a81548160ff02191690831515021790555060008082815260200190815260200160002060020160008154809291906001019190505550807fa247b679b8fc65eb95979774186f3f4068743d7c38c37ca4b1181dcb7ca2507d60405160405180910390a250565b600260008154809291906001019190505550606060405190810160405280600254815260200182815260200160008152506000806002548152602001908152602001600020600082015181600001556020820151816001019080519060200190610423929190610434565b506040820151816002015590505050565b828054600181600116156101000203166002900490600052602060002090601f016020900481019282601f1061047557805160ff19168380011785556104a3565b828001600101855582156104a3579182015b828111156104a2578251825591602001919060010190610487565b5b5090506104b091906104b4565b5090565b6104d691905b808211156104d25760008160009055506001016104ba565b5090565b905600a165627a7a723058201be5548ed542a8b1d301d020dc135903c2d0a59d21ca8a04451256be15f790760029",
  "source": "pragma solidity ^0.4.20;\r\n\r\ncontract Election{\r\n\t// Model the Candidate\r\n\tstruct Candidate{\r\n\t\tuint id;\r\n\t\tstring name;\r\n\t\tuint voteCount;\r\n\t}\r\n\t\r\n\t// Mapping the Candidate\r\n\t// @input uint\r\n\t// @return Candidate Model\r\n\r\n\tmapping( uint => Candidate ) public candidates;\r\n\r\n\t// Mapping the Voters\r\n\t// @input voter address\r\n\t// @return true or false as for voted\r\n\r\n\tmapping( address=> bool) public voters;\r\n\r\n\r\n\t// Count the total candidates\r\n\t// default value is 0\r\n\tuint public candidateCount;\r\n\t//Constractor \r\n\r\n\t//Create Event for notify the vote\r\n\t// input a indexed local id\r\n\tevent voteEvent(\r\n\t\tuint indexed _candidateId\r\n\t\t);\r\n\r\n\tfunction Election() public{\r\n\t\t// Add Candidate 1\r\n\t\taddCandidate( \"Candidate 1\" );\r\n\t\t//Add Candidate 2\r\n\t\taddCandidate( \"Candidate 2\" );\r\n\t}\r\n\r\n\t// Add the candidates\r\n\tfunction addCandidate( string _name ) private{\r\n\t\tcandidateCount++;\r\n\t\t//Inserted the Candidates\r\n\t\tcandidates[candidateCount] = Candidate( candidateCount, _name, 0);\r\n\t}\r\n\r\n\tfunction Vote( uint _candidateId ) public{\r\n\r\n\t\t//Check the voter already vote \r\n\t\t// if yes no more execution\r\n\t\trequire(!voters[msg.sender]);\r\n\r\n\t\t//Check the Invalid candidate \r\n\t\t// if yes no more execution\r\n\t\trequire( _candidateId >0 && _candidateId <= candidateCount);\r\n\r\n\t\t// set the voter voted\r\n\t\tvoters[msg.sender] =true;\r\n\r\n\t\t//Increase the Candidate vote\r\n\t\tcandidates[_candidateId].voteCount++;\r\n\t\temit voteEvent(_candidateId);\r\n\t}\r\n}",
  "sourcePath": "G:\\Tutorials\\Ethereum\\Dapp\\dapp-election\\contracts\\Election.sol",
  "compiler": {
    "name": "solc",
    "version": "0.4.21+commit.dfe3193c.Emscripten.clang"
  },
  "schemaVersion": "2.0.0",
  "updatedAt": "2018-04-26T18:14:35.009Z"
}