{
  "contractName": "Election",
  "abi": [
    {
      "constant": true,
      "inputs": [
        {
          "name": "",
          "type": "uint256"
        }
      ],
      "name": "candidates",
      "outputs": [
        {
          "name": "id",
          "type": "uint256"
        },
        {
          "name": "name",
          "type": "string"
        },
        {
          "name": "voteCount",
          "type": "uint256"
        }
      ],
      "payable": false,
      "stateMutability": "view",
      "type": "function"
    },
    {
      "constant": true,
      "inputs": [],
      "name": "candidateCount",
      "outputs": [
        {
          "name": "",
          "type": "uint256"
        }
      ],
      "payable": false,
      "stateMutability": "view",
      "type": "function"
    },
    {
      "inputs": [],
      "payable": false,
      "stateMutability": "nonpayable",
      "type": "constructor"
    }
  ],
  "bytecode": "0x6060604052341561000f57600080fd5b6100606040805190810160405280600b81526020017f43616e64696461746520310000000000000000000000000000000000000000008152506100b6640100000000026101ec176401000000009004565b6100b16040805190810160405280600b81526020017f43616e64696461746520320000000000000000000000000000000000000000008152506100b6640100000000026101ec176401000000009004565b6101d7565b600160008154809291906001019190505550606060405190810160405280600154815260200182815260200160008152506000806001548152602001908152602001600020600082015181600001556020820151816001019080519060200190610121929190610132565b506040820151816002015590505050565b828054600181600116156101000203166002900490600052602060002090601f016020900481019282601f1061017357805160ff19168380011785556101a1565b828001600101855582156101a1579182015b828111156101a0578251825591602001919060010190610185565b5b5090506101ae91906101b2565b5090565b6101d491905b808211156101d05760008160009055506001016101b8565b5090565b90565b610339806101e66000396000f30060606040526004361061004c576000357c0100000000000000000000000000000000000000000000000000000000900463ffffffff1680633477ee2e14610051578063a9a981a3146100fb575b600080fd5b341561005c57600080fd5b6100726004808035906020019091905050610124565b6040518084815260200180602001838152602001828103825284818151815260200191508051906020019080838360005b838110156100be5780820151818401526020810190506100a3565b50505050905090810190601f1680156100eb5780820380516001836020036101000a031916815260200191505b5094505050505060405180910390f35b341561010657600080fd5b61010e6101e6565b6040518082815260200191505060405180910390f35b6000602052806000526040600020600091509050806000015490806001018054600181600116156101000203166002900480601f0160208091040260200160405190810160405280929190818152602001828054600181600116156101000203166002900480156101d65780601f106101ab576101008083540402835291602001916101d6565b820191906000526020600020905b8154815290600101906020018083116101b957829003601f168201915b5050505050908060020154905083565b60015481565b600160008154809291906001019190505550606060405190810160405280600154815260200182815260200160008152506000806001548152602001908152602001600020600082015181600001556020820151816001019080519060200190610257929190610268565b506040820151816002015590505050565b828054600181600116156101000203166002900490600052602060002090601f016020900481019282601f106102a957805160ff19168380011785556102d7565b828001600101855582156102d7579182015b828111156102d65782518255916020019190600101906102bb565b5b5090506102e491906102e8565b5090565b61030a91905b808211156103065760008160009055506001016102ee565b5090565b905600a165627a7a7230582088b41a31704bab524f6e36859ec87509ee838292cab5335a56198ec254cd0c580029",
  "source": "pragma solidity ^0.4.20;\r\n\r\ncontract Election{\r\n\t// Model the Candidate\r\n\tstruct Candidate{\r\n\t\tuint id;\r\n\t\tstring name;\r\n\t\tuint voteCount;\r\n\t}\r\n\t// Mapping the Candidate\r\n\tmapping( uint => Candidate ) public candidates;\r\n\t// Count the total candidates\r\n\t// default value is 0\r\n\tuint public candidateCount;\r\n\t//Constractor \r\n\tfunction Election() public{\r\n\t\taddCandidate( \"Candidate 1\" );\r\n\t\taddCandidate( \"Candidate 2\" );\r\n\t}\r\n\t// Add the candidates\r\n\tfunction addCandidate( string _name ) private{\r\n\t\tcandidateCount++;\r\n\t\tcandidates[candidateCount] = Candidate( candidateCount, _name, 0);\r\n\r\n\t}\r\n}",
  "sourcePath": "G:\\Tutorials\\Ethereum\\Dapp\\dapp-election\\contracts\\Election.sol",
  "compiler": {
    "name": "solc",
    "version": "0.4.21+commit.dfe3193c.Emscripten.clang"
  },
  "schemaVersion": "2.0.0",
  "updatedAt": "2018-04-05T08:37:16.994Z"
}